{
  "_format": "hh3-artifact-1",
  "contractName": "Executor",
  "sourceName": "contracts/Executor.sol",
  "abi": [
    {
      "inputs": [],
      "stateMutability": "nonpayable",
      "type": "constructor"
    },
    {
      "inputs": [
        {
          "internalType": "address",
          "name": "target",
          "type": "address"
        },
        {
          "internalType": "bytes",
          "name": "data",
          "type": "bytes"
        }
      ],
      "name": "execute",
      "outputs": [
        {
          "internalType": "bytes",
          "name": "",
          "type": "bytes"
        }
      ],
      "stateMutability": "payable",
      "type": "function"
    },
    {
      "inputs": [],
      "name": "owner",
      "outputs": [
        {
          "internalType": "address",
          "name": "",
          "type": "address"
        }
      ],
      "stateMutability": "view",
      "type": "function"
    }
  ],
  "bytecode": "0x6080604052348015600e575f5ffd5b50335f5f6101000a81548173ffffffffffffffffffffffffffffffffffffffff021916908373ffffffffffffffffffffffffffffffffffffffff1602179055506105368061005b5f395ff3fe608060405260043610610028575f3560e01c80631cff79cd1461002c5780638da5cb5b1461005c575b5f5ffd5b610046600480360381019061004191906102b7565b610086565b6040516100539190610384565b60405180910390f35b348015610067575f5ffd5b506100706101d0565b60405161007d91906103b3565b60405180910390f35b60605f5f9054906101000a900473ffffffffffffffffffffffffffffffffffffffff1673ffffffffffffffffffffffffffffffffffffffff163373ffffffffffffffffffffffffffffffffffffffff1614610116576040517f08c379a000000000000000000000000000000000000000000000000000000000815260040161010d90610426565b60405180910390fd5b5f5f8573ffffffffffffffffffffffffffffffffffffffff16348686604051610140929190610480565b5f6040518083038185875af1925050503d805f811461017a576040519150601f19603f3d011682016040523d82523d5f602084013e61017f565b606091505b5091509150816101c4576040517f08c379a00000000000000000000000000000000000000000000000000000000081526004016101bb906104e2565b60405180910390fd5b80925050509392505050565b5f5f9054906101000a900473ffffffffffffffffffffffffffffffffffffffff1681565b5f5ffd5b5f5ffd5b5f73ffffffffffffffffffffffffffffffffffffffff82169050919050565b5f610225826101fc565b9050919050565b6102358161021b565b811461023f575f5ffd5b50565b5f813590506102508161022c565b92915050565b5f5ffd5b5f5ffd5b5f5ffd5b5f5f83601f84011261027757610276610256565b5b8235905067ffffffffffffffff8111156102945761029361025a565b5b6020830191508360018202830111156102b0576102af61025e565b5b9250929050565b5f5f5f604084860312156102ce576102cd6101f4565b5b5f6102db86828701610242565b935050602084013567ffffffffffffffff8111156102fc576102fb6101f8565b5b61030886828701610262565b92509250509250925092565b5f81519050919050565b5f82825260208201905092915050565b8281835e5f83830152505050565b5f601f19601f8301169050919050565b5f61035682610314565b610360818561031e565b935061037081856020860161032e565b6103798161033c565b840191505092915050565b5f6020820190508181035f83015261039c818461034c565b905092915050565b6103ad8161021b565b82525050565b5f6020820190506103c65f8301846103a4565b92915050565b5f82825260208201905092915050565b7f4e6f74206f776e657200000000000000000000000000000000000000000000005f82015250565b5f6104106009836103cc565b915061041b826103dc565b602082019050919050565b5f6020820190508181035f83015261043d81610404565b9050919050565b5f81905092915050565b828183375f83830152505050565b5f6104678385610444565b935061047483858461044e565b82840190509392505050565b5f61048c82848661045c565b91508190509392505050565b7f43616c6c206661696c65640000000000000000000000000000000000000000005f82015250565b5f6104cc600b836103cc565b91506104d782610498565b602082019050919050565b5f6020820190508181035f8301526104f9816104c0565b905091905056fea26469706673582212200274054544329c9dd896525bb8187ad1a5d2941a85161018b6573c781e10d12a64736f6c634300081c0033",
  "linkReferences": {},
  "deployedLinkReferences": {},
  "immutableReferences": {},
  "inputSourceName": "project/contracts/Executor.sol",
  "buildInfoId": "solc-0_8_28-08dbe4ca6f0ddc0a8d3edd341d146107912037dc"
}